:1000000089C096C095C0C1C093C092C091C090C035
:100010008FC08EC000000000000001010203030435
:1000200005060708090A0C0D0F1012131517191BE6
:100030001D1F212325272A2C2E313336383B3E40E5
:100040004346494C4F5154575A5D6063676A6D701F
:100050007376797C808386898C8F9295989C9FA2F9
:10006000A5A8ABAEB0B3B6B9BCBFC1C4C7C9CCCEEE
:10007000D1D3D5D8DADCDEE0E2E4E6E8EAECEDEF75
:10008000F0F2F3F5F6F7F8F9FAFBFCFCFDFEFEFFE3
:10009000FFFFFFFFFFFFFFFFFFFFFEFEFDFCFCFB7E
:1000A000FAF9F8F7F6F5F3F2F0EFEDECEAE8E6E44A
:1000B000E2E0DEDCDAD8D5D3D1CECCC9C7C4C1BF2B
:1000C000BCB9B6B3B0AEABA8A5A29F9C9895928FD1
:1000D0008C8986837F7C797673706D6A6763605DD7
:1000E0005A5754514F4C494643403E3B38363331C2
:1000F0002E2C2A272523211F1D1B1917151312101B
:100100000F0D0C0A0908070605040303020101008C
:100110000000000011241FBECFE9CDBF10E0A0E613
:10012000B0E001C01D92A236B107E1F702D04AC08B
:1001300067CF84B7877F84BF88E10FB6F89481BD0D
:1001400011BC0FBE80E886BD16BC80E187BB8FB5B1
:100150008C7F8FBD83B7877F83BF83B7887F8160A4
:1001600083BF89B7826089BF789480E0E82FF0E090
:10017000EC5EFF4F8F5FE491E0936000EFE3F8E304
:100180003197F1F700C00000F1CF1F920F920FB628
:100190000F9211242F938F939F93809161009091E0
:1001A0006000282F2F5F20936100891710F4C49AF4
:1001B00001C0C4989F918F912F910F900FBE0F9007
:0801C0001F901895F894FFCF81
:00000001FF
