:1000000009C016C015C082C013C012C011C010C0F4
:100010000FC00EC011241FBECFE9CDBF10E0A0E677
:10002000B0E001C01D92AE36B107E1F702D0CEC0FC
:10003000E7CF84B7877F84BF88E10FB6F89481BD8E
:1000400011BC0FBE1092640081E080936900109291
:10005000650082E080936A001092660084E08093DD
:100060006B001092670088E080936C00109268002B
:1000700080E180936D0080E886BD16BC17BA80E0F1
:1000800090E037B3FC01E759FF4F2081232B27BBBA
:10009000019685309105A9F78FB58C7F8FBD83B709
:1000A000877F83BF83B7887F816083BF89B7826082
:1000B00089BF789480E090E02FEF0EC0FC01EC59EE
:1000C000FF4F20834FE756E061E0415050406040D1
:1000D000E1F700C000000196853091057CF384E0D3
:1000E00090E0FC01EC59FF4F20834FE756E061E0C0
:1000F000415050406040E1F700C0000001975FEFC1
:100100008F3F950771F780E090E0E6CF1F920F9246
:100110000FB60F9211242F933F938F939F93AF931A
:10012000BF93EF93FF9380916000909161009C01D9
:100130002F5F3F4F30936100209360008D33910516
:10014000ACF01092620080E00BC0E82FF0E0EC59B8
:10015000FF4F9081992319F09081915090838F5F88
:10016000853098F310926100109260001092620046
:100170002091630080E014C0E82FF0E0DF01AC596B
:10018000BF4F9C91E759FF4F291720F438B3908156
:10019000932B04C038B390819095932398BB8F5FC5
:1001A000853050F380936200809163008F5F80936D
:1001B0006300FF91EF91BF91AF919F918F913F911C
:1001C0002F910F900FBE0F901F901895F894FFCFAE
:00000001FF
